{
  "contractName": "Market",
  "abi": [
    {
      "inputs": [
        {
          "internalType": "address",
          "name": "_nftContract",
          "type": "address"
        }
      ],
      "stateMutability": "nonpayable",
      "type": "constructor"
    },
    {
      "inputs": [
        {
          "internalType": "address",
          "name": "",
          "type": "address"
        },
        {
          "internalType": "address",
          "name": "",
          "type": "address"
        },
        {
          "internalType": "uint256[]",
          "name": "",
          "type": "uint256[]"
        },
        {
          "internalType": "uint256[]",
          "name": "",
          "type": "uint256[]"
        },
        {
          "internalType": "bytes",
          "name": "",
          "type": "bytes"
        }
      ],
      "name": "onERC1155BatchReceived",
      "outputs": [
        {
          "internalType": "bytes4",
          "name": "",
          "type": "bytes4"
        }
      ],
      "stateMutability": "nonpayable",
      "type": "function"
    },
    {
      "inputs": [
        {
          "internalType": "address",
          "name": "",
          "type": "address"
        },
        {
          "internalType": "address",
          "name": "",
          "type": "address"
        },
        {
          "internalType": "uint256",
          "name": "",
          "type": "uint256"
        },
        {
          "internalType": "uint256",
          "name": "",
          "type": "uint256"
        },
        {
          "internalType": "bytes",
          "name": "",
          "type": "bytes"
        }
      ],
      "name": "onERC1155Received",
      "outputs": [
        {
          "internalType": "bytes4",
          "name": "",
          "type": "bytes4"
        }
      ],
      "stateMutability": "nonpayable",
      "type": "function"
    },
    {
      "inputs": [
        {
          "internalType": "bytes4",
          "name": "interfaceId",
          "type": "bytes4"
        }
      ],
      "name": "supportsInterface",
      "outputs": [
        {
          "internalType": "bool",
          "name": "",
          "type": "bool"
        }
      ],
      "stateMutability": "view",
      "type": "function"
    },
    {
      "inputs": [],
      "name": "test",
      "outputs": [
        {
          "internalType": "address",
          "name": "",
          "type": "address"
        }
      ],
      "stateMutability": "view",
      "type": "function"
    },
    {
      "inputs": [
        {
          "internalType": "uint256",
          "name": "nftId",
          "type": "uint256"
        },
        {
          "internalType": "uint256",
          "name": "amount",
          "type": "uint256"
        },
        {
          "internalType": "uint256",
          "name": "price",
          "type": "uint256"
        }
      ],
      "name": "listNft",
      "outputs": [],
      "stateMutability": "nonpayable",
      "type": "function"
    },
    {
      "inputs": [
        {
          "internalType": "uint256",
          "name": "tokenId",
          "type": "uint256"
        },
        {
          "internalType": "uint256",
          "name": "amount",
          "type": "uint256"
        }
      ],
      "name": "buyNFT",
      "outputs": [],
      "stateMutability": "payable",
      "type": "function"
    }
  ],
  "bytecode": "0x60806040526019600455348015610014575f80fd5b5060405162000fb938038062000fb9833981810160405281019061003891906100dc565b8060025f6101000a81548173ffffffffffffffffffffffffffffffffffffffff021916908373ffffffffffffffffffffffffffffffffffffffff16021790555050610107565b5f80fd5b5f73ffffffffffffffffffffffffffffffffffffffff82169050919050565b5f6100ab82610082565b9050919050565b6100bb816100a1565b81146100c5575f80fd5b50565b5f815190506100d6816100b2565b92915050565b5f602082840312156100f1576100f061007e565b5b5f6100fe848285016100c8565b91505092915050565b610ea480620001155f395ff3fe608060405260043610610054575f3560e01c806301ffc9a7146100585780631d85bf0314610094578063601fccd0146100b0578063bc197c81146100d8578063f23a6e6114610114578063f8a8fd6d14610150575b5f80fd5b348015610063575f80fd5b5061007e60048036038101906100799190610710565b61017a565b60405161008b9190610755565b60405180910390f35b6100ae60048036038101906100a991906107a1565b6101f3565b005b3480156100bb575f80fd5b506100d660048036038101906100d191906107df565b6103a3565b005b3480156100e3575f80fd5b506100fe60048036038101906100f99190610a89565b6105d4565b60405161010b9190610b63565b60405180910390f35b34801561011f575f80fd5b5061013a60048036038101906101359190610b7c565b6105e8565b6040516101479190610b63565b60405180910390f35b34801561015b575f80fd5b506101646105fc565b6040516101719190610c1e565b60405180910390f35b5f7f4e2312e0000000000000000000000000000000000000000000000000000000007bffffffffffffffffffffffffffffffffffffffffffffffffffffffff1916827bffffffffffffffffffffffffffffffffffffffffffffffffffffffff191614806101ec57506101eb82610621565b5b9050919050565b5f60065f8481526020019081526020015f2060030154905060025f9054906101000a900473ffffffffffffffffffffffffffffffffffffffff1673ffffffffffffffffffffffffffffffffffffffff1663f242432a33305f856040518563ffffffff1660e01b815260040161026b9493929190610cbb565b5f604051808303815f87803b158015610282575f80fd5b505af1158015610294573d5f803e3d5ffd5b505050503360065f8581526020019081526020015f206005015f6101000a81548173ffffffffffffffffffffffffffffffffffffffff021916908373ffffffffffffffffffffffffffffffffffffffff1602179055506102f4600161068a565b61030f3033858560405180602001604052805f8152506105e8565b5060025f9054906101000a900473ffffffffffffffffffffffffffffffffffffffff1673ffffffffffffffffffffffffffffffffffffffff1663f242432a30338660016040518563ffffffff1660e01b81526004016103719493929190610d4a565b5f604051808303815f87803b158015610388575f80fd5b505af115801561039a573d5f803e3d5ffd5b50505050505050565b5f83116103e5576040517f08c379a00000000000000000000000000000000000000000000000000000000081526004016103dc90610dfa565b60405180910390fd5b6103ee5f61068a565b5f6103f85f61069e565b90506040518060e001604052808281526020018581526020018481526020018381526020013373ffffffffffffffffffffffffffffffffffffffff1681526020013373ffffffffffffffffffffffffffffffffffffffff1681526020015f151581525060065f8381526020019081526020015f205f820151815f01556020820151816001015560408201518160020155606082015181600301556080820151816004015f6101000a81548173ffffffffffffffffffffffffffffffffffffffff021916908373ffffffffffffffffffffffffffffffffffffffff16021790555060a0820151816005015f6101000a81548173ffffffffffffffffffffffffffffffffffffffff021916908373ffffffffffffffffffffffffffffffffffffffff16021790555060c08201518160050160146101000a81548160ff02191690831515021790555090505060025f9054906101000a900473ffffffffffffffffffffffffffffffffffffffff1673ffffffffffffffffffffffffffffffffffffffff1663f242432a333087876040518563ffffffff1660e01b81526004016105a19493929190610e18565b5f604051808303815f87803b1580156105b8575f80fd5b505af11580156105ca573d5f803e3d5ffd5b5050505050505050565b5f63bc197c8160e01b905095945050505050565b5f63f23a6e6160e01b905095945050505050565b60055f9054906101000a900473ffffffffffffffffffffffffffffffffffffffff1681565b5f7f01ffc9a7000000000000000000000000000000000000000000000000000000007bffffffffffffffffffffffffffffffffffffffffffffffffffffffff1916827bffffffffffffffffffffffffffffffffffffffffffffffffffffffff1916149050919050565b6001815f015f828254019250508190555050565b5f815f01549050919050565b5f604051905090565b5f80fd5b5f80fd5b5f7fffffffff0000000000000000000000000000000000000000000000000000000082169050919050565b6106ef816106bb565b81146106f9575f80fd5b50565b5f8135905061070a816106e6565b92915050565b5f60208284031215610725576107246106b3565b5b5f610732848285016106fc565b91505092915050565b5f8115159050919050565b61074f8161073b565b82525050565b5f6020820190506107685f830184610746565b92915050565b5f819050919050565b6107808161076e565b811461078a575f80fd5b50565b5f8135905061079b81610777565b92915050565b5f80604083850312156107b7576107b66106b3565b5b5f6107c48582860161078d565b92505060206107d58582860161078d565b9150509250929050565b5f805f606084860312156107f6576107f56106b3565b5b5f6108038682870161078d565b93505060206108148682870161078d565b92505060406108258682870161078d565b9150509250925092565b5f73ffffffffffffffffffffffffffffffffffffffff82169050919050565b5f6108588261082f565b9050919050565b6108688161084e565b8114610872575f80fd5b50565b5f813590506108838161085f565b92915050565b5f80fd5b5f601f19601f8301169050919050565b7f4e487b71000000000000000000000000000000000000000000000000000000005f52604160045260245ffd5b6108d38261088d565b810181811067ffffffffffffffff821117156108f2576108f161089d565b5b80604052505050565b5f6109046106aa565b905061091082826108ca565b919050565b5f67ffffffffffffffff82111561092f5761092e61089d565b5b602082029050602081019050919050565b5f80fd5b5f61095661095184610915565b6108fb565b9050808382526020820190506020840283018581111561097957610978610940565b5b835b818110156109a2578061098e888261078d565b84526020840193505060208101905061097b565b5050509392505050565b5f82601f8301126109c0576109bf610889565b5b81356109d0848260208601610944565b91505092915050565b5f80fd5b5f67ffffffffffffffff8211156109f7576109f661089d565b5b610a008261088d565b9050602081019050919050565b828183375f83830152505050565b5f610a2d610a28846109dd565b6108fb565b905082815260208101848484011115610a4957610a486109d9565b5b610a54848285610a0d565b509392505050565b5f82601f830112610a7057610a6f610889565b5b8135610a80848260208601610a1b565b91505092915050565b5f805f805f60a08688031215610aa257610aa16106b3565b5b5f610aaf88828901610875565b9550506020610ac088828901610875565b945050604086013567ffffffffffffffff811115610ae157610ae06106b7565b5b610aed888289016109ac565b935050606086013567ffffffffffffffff811115610b0e57610b0d6106b7565b5b610b1a888289016109ac565b925050608086013567ffffffffffffffff811115610b3b57610b3a6106b7565b5b610b4788828901610a5c565b9150509295509295909350565b610b5d816106bb565b82525050565b5f602082019050610b765f830184610b54565b92915050565b5f805f805f60a08688031215610b9557610b946106b3565b5b5f610ba288828901610875565b9550506020610bb388828901610875565b9450506040610bc48882890161078d565b9350506060610bd58882890161078d565b925050608086013567ffffffffffffffff811115610bf657610bf56106b7565b5b610c0288828901610a5c565b9150509295509295909350565b610c188161084e565b82525050565b5f602082019050610c315f830184610c0f565b92915050565b5f819050919050565b5f819050919050565b5f610c63610c5e610c5984610c37565b610c40565b61076e565b9050919050565b610c7381610c49565b82525050565b610c828161076e565b82525050565b5f82825260208201905092915050565b50565b5f610ca65f83610c88565b9150610cb182610c98565b5f82019050919050565b5f60a082019050610cce5f830187610c0f565b610cdb6020830186610c0f565b610ce86040830185610c6a565b610cf56060830184610c79565b8181036080830152610d0681610c9b565b905095945050505050565b5f819050919050565b5f610d34610d2f610d2a84610d11565b610c40565b61076e565b9050919050565b610d4481610d1a565b82525050565b5f60a082019050610d5d5f830187610c0f565b610d6a6020830186610c0f565b610d776040830185610c79565b610d846060830184610d3b565b8181036080830152610d9581610c9b565b905095945050505050565b5f82825260208201905092915050565b7f546f6b656e20646f65736e6f74206578697374000000000000000000000000005f82015250565b5f610de4601383610da0565b9150610def82610db0565b602082019050919050565b5f6020820190508181035f830152610e1181610dd8565b9050919050565b5f60a082019050610e2b5f830187610c0f565b610e386020830186610c0f565b610e456040830185610c79565b610e526060830184610c79565b8181036080830152610e6381610c9b565b90509594505050505056fea2646970667358221220c7fcdb38680a383d15dbeedc6ce56c5899d15e1ce41f3d718fb9f71b3c781c5464736f6c63430008140033",
  "immutableReferences": {},
  "source": "// SPDX-License-Identifier: MIT\n\npragma solidity ^0.8.4;\n\nimport \"@openzeppelin/contracts/token/ERC1155/ERC1155.sol\";\nimport \"@openzeppelin/contracts/utils/Counters.sol\";\nimport \"@openzeppelin/contracts/token/ERC1155/IERC1155.sol\";\nimport \"@openzeppelin/contracts/token/ERC1155/utils/ERC1155Holder.sol\";\n\ncontract  Market is ERC1155Holder {\n\n    using Counters for Counters.Counter;\n    Counters.Counter private _tokenIds;\n    Counters.Counter private _nftSold;\n    IERC1155 private nftContract;                        //Contrat fonctionnel mais je n'arrive pas a importer l'instance pour interagir avec\n    address private owner;\n    uint256 private platformFee = 25;\n    address public test;\n\n    constructor(address _nftContract) {\n        nftContract = IERC1155(_nftContract);\n    }\n\n    struct NFTMarketItem{\n        uint256 tokenId;\n        uint256 nftId;\n        uint256 amount;\n        uint256 price;\n        address payable seller;\n        address payable owner;\n        bool sold;\n    }\n\n    mapping(uint256 => NFTMarketItem) private marketItem;\n  \n    function listNft(uint256 nftId,uint256 amount, uint256 price) external {\n\n        require(nftId > 0, \"Token doesnot exist\");\n        \n        _tokenIds.increment();\n        uint256 tokenId = _tokenIds.current();                         //sur remix ca fonctionne mais il faut penser a jouter la fction setApproval pour pouvoir transferer le NFT\n\n        marketItem[tokenId] = NFTMarketItem(\n            tokenId,\n            nftId,\n            amount,\n            price,\n            payable(msg.sender),\n            payable(msg.sender),\n            false\n        );\n        IERC1155(nftContract).safeTransferFrom(msg.sender, address(this), nftId, amount, \"\");\n    }\n\n    function buyNFT(uint256 tokenId, uint256 amount) external payable {\n         uint256 price = marketItem[tokenId].price ;\n\n        nftContract.safeTransferFrom(msg.sender, address(this), 0, price, \"\");\n//        nftContract.safeTransferFrom(msg.sender, marketItem[tokenId].owner, 0, 2, \"\");\n//        nftContract.safeTransferFrom(msg.sender, address(this), 0, marketFee, \"\");\n\n\n        marketItem[tokenId].owner = payable(msg.sender);\n        _nftSold.increment();\n\n        onERC1155Received(address(this), msg.sender, tokenId, amount, \"\");\n        nftContract.safeTransferFrom(address(this), msg.sender, tokenId, 1, \"\");    //ici pour le test on en mets qu'un seul mais il faudrait mettre amount a la place de 1\n\n    }\n\n}",
  "sourcePath": "/home/so2f/Perso/clone_websites/Permalifev2/truffle/contracts/Market.sol",
  "compiler": {
    "name": "solc",
    "version": "0.8.20+commit.a1b79de6.Emscripten.clang"
  },
  "schemaVersion": "3.4.16",
  "updatedAt": "2024-05-04T20:42:07.372Z",
  "networkType": "ethereum",
  "devdoc": {
    "kind": "dev",
    "methods": {
      "supportsInterface(bytes4)": {
        "details": "See {IERC165-supportsInterface}."
      }
    },
    "version": 1
  },
  "userdoc": {
    "kind": "user",
    "methods": {},
    "version": 1
  }
}