{
  "contractName": "Perma",
  "abi": [
    {
      "inputs": [
        {
          "internalType": "string",
          "name": "uri_",
          "type": "string"
        }
      ],
      "stateMutability": "nonpayable",
      "type": "constructor"
    },
    {
      "inputs": [
        {
          "internalType": "address",
          "name": "sender",
          "type": "address"
        },
        {
          "internalType": "uint256",
          "name": "balance",
          "type": "uint256"
        },
        {
          "internalType": "uint256",
          "name": "needed",
          "type": "uint256"
        },
        {
          "internalType": "uint256",
          "name": "tokenId",
          "type": "uint256"
        }
      ],
      "name": "ERC1155InsufficientBalance",
      "type": "error"
    },
    {
      "inputs": [
        {
          "internalType": "address",
          "name": "approver",
          "type": "address"
        }
      ],
      "name": "ERC1155InvalidApprover",
      "type": "error"
    },
    {
      "inputs": [
        {
          "internalType": "uint256",
          "name": "idsLength",
          "type": "uint256"
        },
        {
          "internalType": "uint256",
          "name": "valuesLength",
          "type": "uint256"
        }
      ],
      "name": "ERC1155InvalidArrayLength",
      "type": "error"
    },
    {
      "inputs": [
        {
          "internalType": "address",
          "name": "operator",
          "type": "address"
        }
      ],
      "name": "ERC1155InvalidOperator",
      "type": "error"
    },
    {
      "inputs": [
        {
          "internalType": "address",
          "name": "receiver",
          "type": "address"
        }
      ],
      "name": "ERC1155InvalidReceiver",
      "type": "error"
    },
    {
      "inputs": [
        {
          "internalType": "address",
          "name": "sender",
          "type": "address"
        }
      ],
      "name": "ERC1155InvalidSender",
      "type": "error"
    },
    {
      "inputs": [
        {
          "internalType": "address",
          "name": "operator",
          "type": "address"
        },
        {
          "internalType": "address",
          "name": "owner",
          "type": "address"
        }
      ],
      "name": "ERC1155MissingApprovalForAll",
      "type": "error"
    },
    {
      "inputs": [
        {
          "internalType": "address",
          "name": "owner",
          "type": "address"
        }
      ],
      "name": "OwnableInvalidOwner",
      "type": "error"
    },
    {
      "inputs": [
        {
          "internalType": "address",
          "name": "account",
          "type": "address"
        }
      ],
      "name": "OwnableUnauthorizedAccount",
      "type": "error"
    },
    {
      "anonymous": false,
      "inputs": [
        {
          "indexed": true,
          "internalType": "address",
          "name": "account",
          "type": "address"
        },
        {
          "indexed": true,
          "internalType": "address",
          "name": "operator",
          "type": "address"
        },
        {
          "indexed": false,
          "internalType": "bool",
          "name": "approved",
          "type": "bool"
        }
      ],
      "name": "ApprovalForAll",
      "type": "event"
    },
    {
      "anonymous": false,
      "inputs": [
        {
          "indexed": true,
          "internalType": "address",
          "name": "previousOwner",
          "type": "address"
        },
        {
          "indexed": true,
          "internalType": "address",
          "name": "newOwner",
          "type": "address"
        }
      ],
      "name": "OwnershipTransferred",
      "type": "event"
    },
    {
      "anonymous": false,
      "inputs": [
        {
          "indexed": false,
          "internalType": "address",
          "name": "account",
          "type": "address"
        }
      ],
      "name": "Paused",
      "type": "event"
    },
    {
      "anonymous": false,
      "inputs": [
        {
          "indexed": true,
          "internalType": "address",
          "name": "operator",
          "type": "address"
        },
        {
          "indexed": true,
          "internalType": "address",
          "name": "from",
          "type": "address"
        },
        {
          "indexed": true,
          "internalType": "address",
          "name": "to",
          "type": "address"
        },
        {
          "indexed": false,
          "internalType": "uint256[]",
          "name": "ids",
          "type": "uint256[]"
        },
        {
          "indexed": false,
          "internalType": "uint256[]",
          "name": "values",
          "type": "uint256[]"
        }
      ],
      "name": "TransferBatch",
      "type": "event"
    },
    {
      "anonymous": false,
      "inputs": [
        {
          "indexed": true,
          "internalType": "address",
          "name": "operator",
          "type": "address"
        },
        {
          "indexed": true,
          "internalType": "address",
          "name": "from",
          "type": "address"
        },
        {
          "indexed": true,
          "internalType": "address",
          "name": "to",
          "type": "address"
        },
        {
          "indexed": false,
          "internalType": "uint256",
          "name": "id",
          "type": "uint256"
        },
        {
          "indexed": false,
          "internalType": "uint256",
          "name": "value",
          "type": "uint256"
        }
      ],
      "name": "TransferSingle",
      "type": "event"
    },
    {
      "anonymous": false,
      "inputs": [
        {
          "indexed": false,
          "internalType": "string",
          "name": "value",
          "type": "string"
        },
        {
          "indexed": true,
          "internalType": "uint256",
          "name": "id",
          "type": "uint256"
        }
      ],
      "name": "URI",
      "type": "event"
    },
    {
      "anonymous": false,
      "inputs": [
        {
          "indexed": false,
          "internalType": "address",
          "name": "account",
          "type": "address"
        }
      ],
      "name": "Unpaused",
      "type": "event"
    },
    {
      "inputs": [
        {
          "internalType": "address",
          "name": "account",
          "type": "address"
        },
        {
          "internalType": "uint256",
          "name": "id",
          "type": "uint256"
        }
      ],
      "name": "balanceOf",
      "outputs": [
        {
          "internalType": "uint256",
          "name": "",
          "type": "uint256"
        }
      ],
      "stateMutability": "view",
      "type": "function"
    },
    {
      "inputs": [
        {
          "internalType": "address[]",
          "name": "accounts",
          "type": "address[]"
        },
        {
          "internalType": "uint256[]",
          "name": "ids",
          "type": "uint256[]"
        }
      ],
      "name": "balanceOfBatch",
      "outputs": [
        {
          "internalType": "uint256[]",
          "name": "",
          "type": "uint256[]"
        }
      ],
      "stateMutability": "view",
      "type": "function"
    },
    {
      "inputs": [
        {
          "internalType": "address",
          "name": "account",
          "type": "address"
        },
        {
          "internalType": "address",
          "name": "operator",
          "type": "address"
        }
      ],
      "name": "isApprovedForAll",
      "outputs": [
        {
          "internalType": "bool",
          "name": "",
          "type": "bool"
        }
      ],
      "stateMutability": "view",
      "type": "function"
    },
    {
      "inputs": [],
      "name": "name",
      "outputs": [
        {
          "internalType": "string",
          "name": "",
          "type": "string"
        }
      ],
      "stateMutability": "view",
      "type": "function"
    },
    {
      "inputs": [],
      "name": "owner",
      "outputs": [
        {
          "internalType": "address",
          "name": "",
          "type": "address"
        }
      ],
      "stateMutability": "view",
      "type": "function"
    },
    {
      "inputs": [],
      "name": "paused",
      "outputs": [
        {
          "internalType": "bool",
          "name": "",
          "type": "bool"
        }
      ],
      "stateMutability": "view",
      "type": "function"
    },
    {
      "inputs": [],
      "name": "price",
      "outputs": [
        {
          "internalType": "uint256",
          "name": "",
          "type": "uint256"
        }
      ],
      "stateMutability": "view",
      "type": "function"
    },
    {
      "inputs": [],
      "name": "renounceOwnership",
      "outputs": [],
      "stateMutability": "nonpayable",
      "type": "function"
    },
    {
      "inputs": [
        {
          "internalType": "address",
          "name": "from",
          "type": "address"
        },
        {
          "internalType": "address",
          "name": "to",
          "type": "address"
        },
        {
          "internalType": "uint256[]",
          "name": "ids",
          "type": "uint256[]"
        },
        {
          "internalType": "uint256[]",
          "name": "values",
          "type": "uint256[]"
        },
        {
          "internalType": "bytes",
          "name": "data",
          "type": "bytes"
        }
      ],
      "name": "safeBatchTransferFrom",
      "outputs": [],
      "stateMutability": "nonpayable",
      "type": "function"
    },
    {
      "inputs": [
        {
          "internalType": "address",
          "name": "from",
          "type": "address"
        },
        {
          "internalType": "address",
          "name": "to",
          "type": "address"
        },
        {
          "internalType": "uint256",
          "name": "id",
          "type": "uint256"
        },
        {
          "internalType": "uint256",
          "name": "value",
          "type": "uint256"
        },
        {
          "internalType": "bytes",
          "name": "data",
          "type": "bytes"
        }
      ],
      "name": "safeTransferFrom",
      "outputs": [],
      "stateMutability": "nonpayable",
      "type": "function"
    },
    {
      "inputs": [
        {
          "internalType": "address",
          "name": "operator",
          "type": "address"
        },
        {
          "internalType": "bool",
          "name": "approved",
          "type": "bool"
        }
      ],
      "name": "setApprovalForAll",
      "outputs": [],
      "stateMutability": "nonpayable",
      "type": "function"
    },
    {
      "inputs": [
        {
          "internalType": "bytes4",
          "name": "interfaceId",
          "type": "bytes4"
        }
      ],
      "name": "supportsInterface",
      "outputs": [
        {
          "internalType": "bool",
          "name": "",
          "type": "bool"
        }
      ],
      "stateMutability": "view",
      "type": "function"
    },
    {
      "inputs": [],
      "name": "symbol",
      "outputs": [
        {
          "internalType": "string",
          "name": "",
          "type": "string"
        }
      ],
      "stateMutability": "view",
      "type": "function"
    },
    {
      "inputs": [
        {
          "internalType": "address",
          "name": "newOwner",
          "type": "address"
        }
      ],
      "name": "transferOwnership",
      "outputs": [],
      "stateMutability": "nonpayable",
      "type": "function"
    },
    {
      "inputs": [
        {
          "internalType": "address[]",
          "name": "addresses",
          "type": "address[]"
        }
      ],
      "name": "setWhitelist",
      "outputs": [],
      "stateMutability": "nonpayable",
      "type": "function"
    },
    {
      "inputs": [
        {
          "internalType": "string",
          "name": "newuri",
          "type": "string"
        }
      ],
      "name": "setURI",
      "outputs": [],
      "stateMutability": "nonpayable",
      "type": "function"
    },
    {
      "inputs": [
        {
          "internalType": "uint256",
          "name": "_id",
          "type": "uint256"
        }
      ],
      "name": "uri",
      "outputs": [
        {
          "internalType": "string",
          "name": "",
          "type": "string"
        }
      ],
      "stateMutability": "view",
      "type": "function"
    },
    {
      "inputs": [
        {
          "internalType": "address",
          "name": "_owner",
          "type": "address"
        },
        {
          "internalType": "uint256",
          "name": "id",
          "type": "uint256"
        },
        {
          "internalType": "uint256",
          "name": "amount",
          "type": "uint256"
        }
      ],
      "name": "mint",
      "outputs": [],
      "stateMutability": "nonpayable",
      "type": "function"
    },
    {
      "inputs": [
        {
          "internalType": "address payable",
          "name": "_addr",
          "type": "address"
        }
      ],
      "name": "withdraw",
      "outputs": [],
      "stateMutability": "nonpayable",
      "type": "function"
    },
    {
      "inputs": [
        {
          "internalType": "address",
          "name": "to",
          "type": "address"
        },
        {
          "internalType": "uint256[]",
          "name": "ids",
          "type": "uint256[]"
        },
        {
          "internalType": "uint256[]",
          "name": "amounts",
          "type": "uint256[]"
        },
        {
          "internalType": "bytes",
          "name": "data",
          "type": "bytes"
        }
      ],
      "name": "mintBatch",
      "outputs": [],
      "stateMutability": "nonpayable",
      "type": "function"
    }
  ],
  "bytecode": "0x6080604052662386f26fc100006004556040518060400160405280600981526020017f5045524d414c49464500000000000000000000000000000000000000000000008152506006908162000055919062000553565b506040518060400160405280600881526020017f5045524d41424147000000000000000000000000000000000000000000000000815250600790816200009c919062000553565b50348015620000a9575f80fd5b5060405162003741380380620037418339818101604052810190620000cf91906200078f565b3381620000e2816200021760201b60201c565b505f73ffffffffffffffffffffffffffffffffffffffff168173ffffffffffffffffffffffffffffffffffffffff160362000156575f6040517f1e4fbdf70000000000000000000000000000000000000000000000000000000081526004016200014d919062000821565b60405180910390fd5b62000167816200022c60201b60201c565b505f600360146101000a81548160ff0219169083151502179055506040518060400160405280600981526020017f5045524d414c494645000000000000000000000000000000000000000000000081525060069081620001c8919062000553565b506040518060400160405280600881526020017f5045524d41424147000000000000000000000000000000000000000000000000815250600790816200020f919062000553565b50506200083c565b806002908162000228919062000553565b5050565b5f60035f9054906101000a900473ffffffffffffffffffffffffffffffffffffffff1690508160035f6101000a81548173ffffffffffffffffffffffffffffffffffffffff021916908373ffffffffffffffffffffffffffffffffffffffff1602179055508173ffffffffffffffffffffffffffffffffffffffff168173ffffffffffffffffffffffffffffffffffffffff167f8be0079c531659141344cd1fd0a4f28419497f9722a3daafe3b4186f6b6457e060405160405180910390a35050565b5f81519050919050565b7f4e487b71000000000000000000000000000000000000000000000000000000005f52604160045260245ffd5b7f4e487b71000000000000000000000000000000000000000000000000000000005f52602260045260245ffd5b5f60028204905060018216806200036b57607f821691505b60208210810362000381576200038062000326565b5b50919050565b5f819050815f5260205f209050919050565b5f6020601f8301049050919050565b5f82821b905092915050565b5f60088302620003e57fffffffffffffffffffffffffffffffffffffffffffffffffffffffffffffffff82620003a8565b620003f18683620003a8565b95508019841693508086168417925050509392505050565b5f819050919050565b5f819050919050565b5f6200043b620004356200042f8462000409565b62000412565b62000409565b9050919050565b5f819050919050565b62000456836200041b565b6200046e620004658262000442565b848454620003b4565b825550505050565b5f90565b6200048462000476565b620004918184846200044b565b505050565b5b81811015620004b857620004ac5f826200047a565b60018101905062000497565b5050565b601f8211156200050757620004d18162000387565b620004dc8462000399565b81016020851015620004ec578190505b62000504620004fb8562000399565b83018262000496565b50505b505050565b5f82821c905092915050565b5f620005295f19846008026200050c565b1980831691505092915050565b5f62000543838362000518565b9150826002028217905092915050565b6200055e82620002ef565b67ffffffffffffffff8111156200057a5762000579620002f9565b5b62000586825462000353565b62000593828285620004bc565b5f60209050601f831160018114620005c9575f8415620005b4578287015190505b620005c0858262000536565b8655506200062f565b601f198416620005d98662000387565b5f5b828110156200060257848901518255600182019150602085019450602081019050620005db565b868310156200062257848901516200061e601f89168262000518565b8355505b6001600288020188555050505b505050505050565b5f604051905090565b5f80fd5b5f80fd5b5f80fd5b5f80fd5b5f601f19601f8301169050919050565b6200066b8262000650565b810181811067ffffffffffffffff821117156200068d576200068c620002f9565b5b80604052505050565b5f620006a162000637565b9050620006af828262000660565b919050565b5f67ffffffffffffffff821115620006d157620006d0620002f9565b5b620006dc8262000650565b9050602081019050919050565b5f5b8381101562000708578082015181840152602081019050620006eb565b5f8484015250505050565b5f620007296200072384620006b4565b62000696565b9050828152602081018484840111156200074857620007476200064c565b5b62000755848285620006e9565b509392505050565b5f82601f83011262000774576200077362000648565b5b81516200078684826020860162000713565b91505092915050565b5f60208284031215620007a757620007a662000640565b5b5f82015167ffffffffffffffff811115620007c757620007c662000644565b5b620007d5848285016200075d565b91505092915050565b5f73ffffffffffffffffffffffffffffffffffffffff82169050919050565b5f6200080982620007de565b9050919050565b6200081b81620007fd565b82525050565b5f602082019050620008365f83018462000810565b92915050565b612ef7806200084a5f395ff3fe608060405234801561000f575f80fd5b5060043610610129575f3560e01c80635c975abb116100ab578063a22cb4651161006f578063a22cb46514610319578063e985e9c514610335578063f242432a14610365578063f2fde38b14610381578063f42176481461039d57610129565b80635c975abb14610297578063715018a6146102b55780638da5cb5b146102bf57806395d89b41146102dd578063a035b1fe146102fb57610129565b8063156e29f6116100f2578063156e29f6146101f75780631f7fdffa146102135780632eb2c2d61461022f5780634e1273f41461024b57806351cff8d91461027b57610129565b8062fdd58e1461012d57806301ffc9a71461015d57806302fe53051461018d57806306fdde03146101a95780630e89341c146101c7575b5f80fd5b61014760048036038101906101429190611cf7565b6103b9565b6040516101549190611d44565b60405180910390f35b61017760048036038101906101729190611db2565b61040e565b6040516101849190611df7565b60405180910390f35b6101a760048036038101906101a29190611f4c565b6104ef565b005b6101b1610503565b6040516101be919061200d565b60405180910390f35b6101e160048036038101906101dc919061202d565b61058f565b6040516101ee919061200d565b60405180910390f35b610211600480360381019061020c9190612058565b6105ca565b005b61022d6004803603810190610228919061220a565b6105f1565b005b610249600480360381019061024491906122c2565b61060b565b005b6102656004803603810190610260919061244d565b6106b2565b604051610272919061257a565b60405180910390f35b610295600480360381019061029091906125d5565b6107bf565b005b61029f610813565b6040516102ac9190611df7565b60405180910390f35b6102bd610829565b005b6102c761083c565b6040516102d4919061260f565b60405180910390f35b6102e5610864565b6040516102f2919061200d565b60405180910390f35b6103036108f0565b6040516103109190611d44565b60405180910390f35b610333600480360381019061032e9190612652565b6108f6565b005b61034f600480360381019061034a9190612690565b61090c565b60405161035c9190611df7565b60405180910390f35b61037f600480360381019061037a91906126ce565b61099a565b005b61039b60048036038101906103969190612761565b610a41565b005b6103b760048036038101906103b291906127e5565b610ac5565b005b5f805f8381526020019081526020015f205f8473ffffffffffffffffffffffffffffffffffffffff1673ffffffffffffffffffffffffffffffffffffffff1681526020019081526020015f2054905092915050565b5f7fd9b67a26000000000000000000000000000000000000000000000000000000007bffffffffffffffffffffffffffffffffffffffffffffffffffffffff1916827bffffffffffffffffffffffffffffffffffffffffffffffffffffffff191614806104d857507f0e89341c000000000000000000000000000000000000000000000000000000007bffffffffffffffffffffffffffffffffffffffffffffffffffffffff1916827bffffffffffffffffffffffffffffffffffffffffffffffffffffffff1916145b806104e857506104e782610b6e565b5b9050919050565b6104f7610bd7565b61050081610c5e565b50565b600680546105109061285d565b80601f016020809104026020016040519081016040528092919081815260200182805461053c9061285d565b80156105875780601f1061055e57610100808354040283529160200191610587565b820191905f5260205f20905b81548152906001019060200180831161056a57829003601f168201915b505050505081565b606061059a82610c71565b6105a383610d03565b6040516020016105b4929190612911565b6040516020818303038152906040529050919050565b6105d2610bd7565b6105ec83838360405180602001604052805f815250610dcd565b505050565b6105f9610bd7565b61060584848484610e62565b50505050565b5f610614610ee5565b90508073ffffffffffffffffffffffffffffffffffffffff168673ffffffffffffffffffffffffffffffffffffffff16141580156106595750610657868261090c565b155b1561069d5780866040517fe237d92200000000000000000000000000000000000000000000000000000000815260040161069492919061293f565b60405180910390fd5b6106aa8686868686610eec565b505050505050565b606081518351146106fe57815183516040517f5b0599910000000000000000000000000000000000000000000000000000000081526004016106f5929190612966565b60405180910390fd5b5f835167ffffffffffffffff81111561071a57610719611e28565b5b6040519080825280602002602001820160405280156107485781602001602082028036833780820191505090505b5090505f5b84518110156107b45761078461076c8287610fe090919063ffffffff16565b61077f8387610ff390919063ffffffff16565b6103b9565b8282815181106107975761079661298d565b5b602002602001018181525050806107ad906129e7565b905061074d565b508091505092915050565b6107c7610bd7565b5f4790508173ffffffffffffffffffffffffffffffffffffffff166108fc8290811502906040515f60405180830381858888f1935050505015801561080e573d5f803e3d5ffd5b505050565b5f600360149054906101000a900460ff16905090565b610831610bd7565b61083a5f611006565b565b5f60035f9054906101000a900473ffffffffffffffffffffffffffffffffffffffff16905090565b600780546108719061285d565b80601f016020809104026020016040519081016040528092919081815260200182805461089d9061285d565b80156108e85780601f106108bf576101008083540402835291602001916108e8565b820191905f5260205f20905b8154815290600101906020018083116108cb57829003601f168201915b505050505081565b60045481565b610908610901610ee5565b83836110c9565b5050565b5f60015f8473ffffffffffffffffffffffffffffffffffffffff1673ffffffffffffffffffffffffffffffffffffffff1681526020019081526020015f205f8373ffffffffffffffffffffffffffffffffffffffff1673ffffffffffffffffffffffffffffffffffffffff1681526020019081526020015f205f9054906101000a900460ff16905092915050565b5f6109a3610ee5565b90508073ffffffffffffffffffffffffffffffffffffffff168673ffffffffffffffffffffffffffffffffffffffff16141580156109e857506109e6868261090c565b155b15610a2c5780866040517fe237d922000000000000000000000000000000000000000000000000000000008152600401610a2392919061293f565b60405180910390fd5b610a398686868686611232565b505050505050565b610a49610bd7565b5f73ffffffffffffffffffffffffffffffffffffffff168173ffffffffffffffffffffffffffffffffffffffff1603610ab9575f6040517f1e4fbdf7000000000000000000000000000000000000000000000000000000008152600401610ab0919061260f565b60405180910390fd5b610ac281611006565b50565b610acd610bd7565b5f5b82829050811015610b6957600160055f858585818110610af257610af161298d565b5b9050602002016020810190610b079190612761565b73ffffffffffffffffffffffffffffffffffffffff1673ffffffffffffffffffffffffffffffffffffffff1681526020019081526020015f205f6101000a81548160ff0219169083151502179055508080610b61906129e7565b915050610acf565b505050565b5f7f01ffc9a7000000000000000000000000000000000000000000000000000000007bffffffffffffffffffffffffffffffffffffffffffffffffffffffff1916827bffffffffffffffffffffffffffffffffffffffffffffffffffffffff1916149050919050565b610bdf610ee5565b73ffffffffffffffffffffffffffffffffffffffff16610bfd61083c565b73ffffffffffffffffffffffffffffffffffffffff1614610c5c57610c20610ee5565b6040517f118cdaa7000000000000000000000000000000000000000000000000000000008152600401610c53919061260f565b60405180910390fd5b565b8060029081610c6d9190612bcb565b5050565b606060028054610c809061285d565b80601f0160208091040260200160405190810160405280929190818152602001828054610cac9061285d565b8015610cf75780601f10610cce57610100808354040283529160200191610cf7565b820191905f5260205f20905b815481529060010190602001808311610cda57829003601f168201915b50505050509050919050565b60605f6001610d1184611338565b0190505f8167ffffffffffffffff811115610d2f57610d2e611e28565b5b6040519080825280601f01601f191660200182016040528015610d615781602001600182028036833780820191505090505b5090505f82602001820190505b600115610dc2578080600190039150507f3031323334353637383961626364656600000000000000000000000000000000600a86061a8153600a8581610db757610db6612c9a565b5b0494505f8503610d6e575b819350505050919050565b5f73ffffffffffffffffffffffffffffffffffffffff168473ffffffffffffffffffffffffffffffffffffffff1603610e3d575f6040517f57f447ce000000000000000000000000000000000000000000000000000000008152600401610e34919061260f565b60405180910390fd5b5f80610e498585611489565b91509150610e5a5f878484876114b9565b505050505050565b5f73ffffffffffffffffffffffffffffffffffffffff168473ffffffffffffffffffffffffffffffffffffffff1603610ed2575f6040517f57f447ce000000000000000000000000000000000000000000000000000000008152600401610ec9919061260f565b60405180910390fd5b610edf5f858585856114b9565b50505050565b5f33905090565b5f73ffffffffffffffffffffffffffffffffffffffff168473ffffffffffffffffffffffffffffffffffffffff1603610f5c575f6040517f57f447ce000000000000000000000000000000000000000000000000000000008152600401610f53919061260f565b60405180910390fd5b5f73ffffffffffffffffffffffffffffffffffffffff168573ffffffffffffffffffffffffffffffffffffffff1603610fcc575f6040517f01a83514000000000000000000000000000000000000000000000000000000008152600401610fc3919061260f565b60405180910390fd5b610fd985858585856114b9565b5050505050565b5f60208202602084010151905092915050565b5f60208202602084010151905092915050565b5f60035f9054906101000a900473ffffffffffffffffffffffffffffffffffffffff1690508160035f6101000a81548173ffffffffffffffffffffffffffffffffffffffff021916908373ffffffffffffffffffffffffffffffffffffffff1602179055508173ffffffffffffffffffffffffffffffffffffffff168173ffffffffffffffffffffffffffffffffffffffff167f8be0079c531659141344cd1fd0a4f28419497f9722a3daafe3b4186f6b6457e060405160405180910390a35050565b5f73ffffffffffffffffffffffffffffffffffffffff168273ffffffffffffffffffffffffffffffffffffffff1603611139575f6040517fced3e100000000000000000000000000000000000000000000000000000000008152600401611130919061260f565b60405180910390fd5b8060015f8573ffffffffffffffffffffffffffffffffffffffff1673ffffffffffffffffffffffffffffffffffffffff1681526020019081526020015f205f8473ffffffffffffffffffffffffffffffffffffffff1673ffffffffffffffffffffffffffffffffffffffff1681526020019081526020015f205f6101000a81548160ff0219169083151502179055508173ffffffffffffffffffffffffffffffffffffffff168373ffffffffffffffffffffffffffffffffffffffff167f17307eab39ab6107e8899845ad3d59bd9653f200f220920489ca2b5937696c31836040516112259190611df7565b60405180910390a3505050565b5f73ffffffffffffffffffffffffffffffffffffffff168473ffffffffffffffffffffffffffffffffffffffff16036112a2575f6040517f57f447ce000000000000000000000000000000000000000000000000000000008152600401611299919061260f565b60405180910390fd5b5f73ffffffffffffffffffffffffffffffffffffffff168573ffffffffffffffffffffffffffffffffffffffff1603611312575f6040517f01a83514000000000000000000000000000000000000000000000000000000008152600401611309919061260f565b60405180910390fd5b5f8061131e8585611489565b9150915061132f87878484876114b9565b50505050505050565b5f805f90507a184f03e93ff9f4daa797ed6e38ed64bf6a1f0100000000000000008310611394577a184f03e93ff9f4daa797ed6e38ed64bf6a1f010000000000000000838161138a57611389612c9a565b5b0492506040810190505b6d04ee2d6d415b85acef810000000083106113d1576d04ee2d6d415b85acef810000000083816113c7576113c6612c9a565b5b0492506020810190505b662386f26fc10000831061140057662386f26fc1000083816113f6576113f5612c9a565b5b0492506010810190505b6305f5e1008310611429576305f5e100838161141f5761141e612c9a565b5b0492506008810190505b612710831061144e57612710838161144457611443612c9a565b5b0492506004810190505b60648310611471576064838161146757611466612c9a565b5b0492506002810190505b600a8310611480576001810190505b80915050919050565b60608060405191506001825283602083015260408201905060018152826020820152604081016040529250929050565b6114c585858585611565565b5f73ffffffffffffffffffffffffffffffffffffffff168473ffffffffffffffffffffffffffffffffffffffff161461155e575f611501610ee5565b9050600184510361154d575f6115205f86610ff390919063ffffffff16565b90505f6115365f86610ff390919063ffffffff16565b90506115468389898585896118fb565b505061155c565b61155b818787878787611aaa565b5b505b5050505050565b80518251146115af57815181516040517f5b0599910000000000000000000000000000000000000000000000000000000081526004016115a6929190612966565b60405180910390fd5b5f6115b8610ee5565b90505f5b83518110156117ba575f6115d98286610ff390919063ffffffff16565b90505f6115ef8386610ff390919063ffffffff16565b90505f73ffffffffffffffffffffffffffffffffffffffff168873ffffffffffffffffffffffffffffffffffffffff1614611712575f805f8481526020019081526020015f205f8a73ffffffffffffffffffffffffffffffffffffffff1673ffffffffffffffffffffffffffffffffffffffff1681526020019081526020015f20549050818110156116be57888183856040517f03dee4c50000000000000000000000000000000000000000000000000000000081526004016116b59493929190612cc7565b60405180910390fd5b8181035f808581526020019081526020015f205f8b73ffffffffffffffffffffffffffffffffffffffff1673ffffffffffffffffffffffffffffffffffffffff1681526020019081526020015f2081905550505b5f73ffffffffffffffffffffffffffffffffffffffff168773ffffffffffffffffffffffffffffffffffffffff16146117a757805f808481526020019081526020015f205f8973ffffffffffffffffffffffffffffffffffffffff1673ffffffffffffffffffffffffffffffffffffffff1681526020019081526020015f205f82825461179f9190612d0a565b925050819055505b5050806117b3906129e7565b90506115bc565b506001835103611875575f6117d85f85610ff390919063ffffffff16565b90505f6117ee5f85610ff390919063ffffffff16565b90508573ffffffffffffffffffffffffffffffffffffffff168773ffffffffffffffffffffffffffffffffffffffff168473ffffffffffffffffffffffffffffffffffffffff167fc3d58168c5ae7397731d063d5bbf3d657854427343f4c083240f7aacaa2d0f628585604051611866929190612966565b60405180910390a450506118f4565b8373ffffffffffffffffffffffffffffffffffffffff168573ffffffffffffffffffffffffffffffffffffffff168273ffffffffffffffffffffffffffffffffffffffff167f4a39dc06d4c0dbc64b70af90fd698a233a518aa5d07e595d983b8c0526c8f7fb86866040516118eb929190612d3d565b60405180910390a45b5050505050565b5f8473ffffffffffffffffffffffffffffffffffffffff163b1115611aa2578373ffffffffffffffffffffffffffffffffffffffff1663f23a6e6187878686866040518663ffffffff1660e01b815260040161195b959493929190612dc4565b6020604051808303815f875af192505050801561199657506040513d601f19601f820116820180604052508101906119939190612e30565b60015b611a17573d805f81146119c4576040519150601f19603f3d011682016040523d82523d5f602084013e6119c9565b606091505b505f815103611a0f57846040517f57f447ce000000000000000000000000000000000000000000000000000000008152600401611a06919061260f565b60405180910390fd5b805181602001fd5b63f23a6e6160e01b7bffffffffffffffffffffffffffffffffffffffffffffffffffffffff1916817bffffffffffffffffffffffffffffffffffffffffffffffffffffffff191614611aa057846040517f57f447ce000000000000000000000000000000000000000000000000000000008152600401611a97919061260f565b60405180910390fd5b505b505050505050565b5f8473ffffffffffffffffffffffffffffffffffffffff163b1115611c51578373ffffffffffffffffffffffffffffffffffffffff1663bc197c8187878686866040518663ffffffff1660e01b8152600401611b0a959493929190612e5b565b6020604051808303815f875af1925050508015611b4557506040513d601f19601f82011682018060405250810190611b429190612e30565b60015b611bc6573d805f8114611b73576040519150601f19603f3d011682016040523d82523d5f602084013e611b78565b606091505b505f815103611bbe57846040517f57f447ce000000000000000000000000000000000000000000000000000000008152600401611bb5919061260f565b60405180910390fd5b805181602001fd5b63bc197c8160e01b7bffffffffffffffffffffffffffffffffffffffffffffffffffffffff1916817bffffffffffffffffffffffffffffffffffffffffffffffffffffffff191614611c4f57846040517f57f447ce000000000000000000000000000000000000000000000000000000008152600401611c46919061260f565b60405180910390fd5b505b505050505050565b5f604051905090565b5f80fd5b5f80fd5b5f73ffffffffffffffffffffffffffffffffffffffff82169050919050565b5f611c9382611c6a565b9050919050565b611ca381611c89565b8114611cad575f80fd5b50565b5f81359050611cbe81611c9a565b92915050565b5f819050919050565b611cd681611cc4565b8114611ce0575f80fd5b50565b5f81359050611cf181611ccd565b92915050565b5f8060408385031215611d0d57611d0c611c62565b5b5f611d1a85828601611cb0565b9250506020611d2b85828601611ce3565b9150509250929050565b611d3e81611cc4565b82525050565b5f602082019050611d575f830184611d35565b92915050565b5f7fffffffff0000000000000000000000000000000000000000000000000000000082169050919050565b611d9181611d5d565b8114611d9b575f80fd5b50565b5f81359050611dac81611d88565b92915050565b5f60208284031215611dc757611dc6611c62565b5b5f611dd484828501611d9e565b91505092915050565b5f8115159050919050565b611df181611ddd565b82525050565b5f602082019050611e0a5f830184611de8565b92915050565b5f80fd5b5f80fd5b5f601f19601f8301169050919050565b7f4e487b71000000000000000000000000000000000000000000000000000000005f52604160045260245ffd5b611e5e82611e18565b810181811067ffffffffffffffff82111715611e7d57611e7c611e28565b5b80604052505050565b5f611e8f611c59565b9050611e9b8282611e55565b919050565b5f67ffffffffffffffff821115611eba57611eb9611e28565b5b611ec382611e18565b9050602081019050919050565b828183375f83830152505050565b5f611ef0611eeb84611ea0565b611e86565b905082815260208101848484011115611f0c57611f0b611e14565b5b611f17848285611ed0565b509392505050565b5f82601f830112611f3357611f32611e10565b5b8135611f43848260208601611ede565b91505092915050565b5f60208284031215611f6157611f60611c62565b5b5f82013567ffffffffffffffff811115611f7e57611f7d611c66565b5b611f8a84828501611f1f565b91505092915050565b5f81519050919050565b5f82825260208201905092915050565b5f5b83811015611fca578082015181840152602081019050611faf565b5f8484015250505050565b5f611fdf82611f93565b611fe98185611f9d565b9350611ff9818560208601611fad565b61200281611e18565b840191505092915050565b5f6020820190508181035f8301526120258184611fd5565b905092915050565b5f6020828403121561204257612041611c62565b5b5f61204f84828501611ce3565b91505092915050565b5f805f6060848603121561206f5761206e611c62565b5b5f61207c86828701611cb0565b935050602061208d86828701611ce3565b925050604061209e86828701611ce3565b9150509250925092565b5f67ffffffffffffffff8211156120c2576120c1611e28565b5b602082029050602081019050919050565b5f80fd5b5f6120e96120e4846120a8565b611e86565b9050808382526020820190506020840283018581111561210c5761210b6120d3565b5b835b8181101561213557806121218882611ce3565b84526020840193505060208101905061210e565b5050509392505050565b5f82601f83011261215357612152611e10565b5b81356121638482602086016120d7565b91505092915050565b5f67ffffffffffffffff82111561218657612185611e28565b5b61218f82611e18565b9050602081019050919050565b5f6121ae6121a98461216c565b611e86565b9050828152602081018484840111156121ca576121c9611e14565b5b6121d5848285611ed0565b509392505050565b5f82601f8301126121f1576121f0611e10565b5b813561220184826020860161219c565b91505092915050565b5f805f806080858703121561222257612221611c62565b5b5f61222f87828801611cb0565b945050602085013567ffffffffffffffff8111156122505761224f611c66565b5b61225c8782880161213f565b935050604085013567ffffffffffffffff81111561227d5761227c611c66565b5b6122898782880161213f565b925050606085013567ffffffffffffffff8111156122aa576122a9611c66565b5b6122b6878288016121dd565b91505092959194509250565b5f805f805f60a086880312156122db576122da611c62565b5b5f6122e888828901611cb0565b95505060206122f988828901611cb0565b945050604086013567ffffffffffffffff81111561231a57612319611c66565b5b6123268882890161213f565b935050606086013567ffffffffffffffff81111561234757612346611c66565b5b6123538882890161213f565b925050608086013567ffffffffffffffff81111561237457612373611c66565b5b612380888289016121dd565b9150509295509295909350565b5f67ffffffffffffffff8211156123a7576123a6611e28565b5b602082029050602081019050919050565b5f6123ca6123c58461238d565b611e86565b905080838252602082019050602084028301858111156123ed576123ec6120d3565b5b835b8181101561241657806124028882611cb0565b8452602084019350506020810190506123ef565b5050509392505050565b5f82601f83011261243457612433611e10565b5b81356124448482602086016123b8565b91505092915050565b5f806040838503121561246357612462611c62565b5b5f83013567ffffffffffffffff8111156124805761247f611c66565b5b61248c85828601612420565b925050602083013567ffffffffffffffff8111156124ad576124ac611c66565b5b6124b98582860161213f565b9150509250929050565b5f81519050919050565b5f82825260208201905092915050565b5f819050602082019050919050565b6124f581611cc4565b82525050565b5f61250683836124ec565b60208301905092915050565b5f602082019050919050565b5f612528826124c3565b61253281856124cd565b935061253d836124dd565b805f5b8381101561256d57815161255488826124fb565b975061255f83612512565b925050600181019050612540565b5085935050505092915050565b5f6020820190508181035f830152612592818461251e565b905092915050565b5f6125a482611c6a565b9050919050565b6125b48161259a565b81146125be575f80fd5b50565b5f813590506125cf816125ab565b92915050565b5f602082840312156125ea576125e9611c62565b5b5f6125f7848285016125c1565b91505092915050565b61260981611c89565b82525050565b5f6020820190506126225f830184612600565b92915050565b61263181611ddd565b811461263b575f80fd5b50565b5f8135905061264c81612628565b92915050565b5f806040838503121561266857612667611c62565b5b5f61267585828601611cb0565b92505060206126868582860161263e565b9150509250929050565b5f80604083850312156126a6576126a5611c62565b5b5f6126b385828601611cb0565b92505060206126c485828601611cb0565b9150509250929050565b5f805f805f60a086880312156126e7576126e6611c62565b5b5f6126f488828901611cb0565b955050602061270588828901611cb0565b945050604061271688828901611ce3565b935050606061272788828901611ce3565b925050608086013567ffffffffffffffff81111561274857612747611c66565b5b612754888289016121dd565b9150509295509295909350565b5f6020828403121561277657612775611c62565b5b5f61278384828501611cb0565b91505092915050565b5f80fd5b5f8083601f8401126127a5576127a4611e10565b5b8235905067ffffffffffffffff8111156127c2576127c161278c565b5b6020830191508360208202830111156127de576127dd6120d3565b5b9250929050565b5f80602083850312156127fb576127fa611c62565b5b5f83013567ffffffffffffffff81111561281857612817611c66565b5b61282485828601612790565b92509250509250929050565b7f4e487b71000000000000000000000000000000000000000000000000000000005f52602260045260245ffd5b5f600282049050600182168061287457607f821691505b60208210810361288757612886612830565b5b50919050565b5f81905092915050565b5f6128a182611f93565b6128ab818561288d565b93506128bb818560208601611fad565b80840191505092915050565b7f2e6a736f6e0000000000000000000000000000000000000000000000000000005f82015250565b5f6128fb60058361288d565b9150612906826128c7565b600582019050919050565b5f61291c8285612897565b91506129288284612897565b9150612933826128ef565b91508190509392505050565b5f6040820190506129525f830185612600565b61295f6020830184612600565b9392505050565b5f6040820190506129795f830185611d35565b6129866020830184611d35565b9392505050565b7f4e487b71000000000000000000000000000000000000000000000000000000005f52603260045260245ffd5b7f4e487b71000000000000000000000000000000000000000000000000000000005f52601160045260245ffd5b5f6129f182611cc4565b91507fffffffffffffffffffffffffffffffffffffffffffffffffffffffffffffffff8203612a2357612a226129ba565b5b600182019050919050565b5f819050815f5260205f209050919050565b5f6020601f8301049050919050565b5f82821b905092915050565b5f60088302612a8a7fffffffffffffffffffffffffffffffffffffffffffffffffffffffffffffffff82612a4f565b612a948683612a4f565b95508019841693508086168417925050509392505050565b5f819050919050565b5f612acf612aca612ac584611cc4565b612aac565b611cc4565b9050919050565b5f819050919050565b612ae883612ab5565b612afc612af482612ad6565b848454612a5b565b825550505050565b5f90565b612b10612b04565b612b1b818484612adf565b505050565b5b81811015612b3e57612b335f82612b08565b600181019050612b21565b5050565b601f821115612b8357612b5481612a2e565b612b5d84612a40565b81016020851015612b6c578190505b612b80612b7885612a40565b830182612b20565b50505b505050565b5f82821c905092915050565b5f612ba35f1984600802612b88565b1980831691505092915050565b5f612bbb8383612b94565b9150826002028217905092915050565b612bd482611f93565b67ffffffffffffffff811115612bed57612bec611e28565b5b612bf7825461285d565b612c02828285612b42565b5f60209050601f831160018114612c33575f8415612c21578287015190505b612c2b8582612bb0565b865550612c92565b601f198416612c4186612a2e565b5f5b82811015612c6857848901518255600182019150602085019450602081019050612c43565b86831015612c855784890151612c81601f891682612b94565b8355505b6001600288020188555050505b505050505050565b7f4e487b71000000000000000000000000000000000000000000000000000000005f52601260045260245ffd5b5f608082019050612cda5f830187612600565b612ce76020830186611d35565b612cf46040830185611d35565b612d016060830184611d35565b95945050505050565b5f612d1482611cc4565b9150612d1f83611cc4565b9250828201905080821115612d3757612d366129ba565b5b92915050565b5f6040820190508181035f830152612d55818561251e565b90508181036020830152612d69818461251e565b90509392505050565b5f81519050919050565b5f82825260208201905092915050565b5f612d9682612d72565b612da08185612d7c565b9350612db0818560208601611fad565b612db981611e18565b840191505092915050565b5f60a082019050612dd75f830188612600565b612de46020830187612600565b612df16040830186611d35565b612dfe6060830185611d35565b8181036080830152612e108184612d8c565b90509695505050505050565b5f81519050612e2a81611d88565b92915050565b5f60208284031215612e4557612e44611c62565b5b5f612e5284828501612e1c565b91505092915050565b5f60a082019050612e6e5f830188612600565b612e7b6020830187612600565b8181036040830152612e8d818661251e565b90508181036060830152612ea1818561251e565b90508181036080830152612eb58184612d8c565b9050969550505050505056fea2646970667358221220b4f01088838fed9a2d5591b0898698423b134ac261544ed6bb1c3b897b1935b564736f6c63430008140033",
  "immutableReferences": {},
  "source": "// SPDX-License-Identifier: MIT\npragma solidity ^0.8.4;\n\nimport \"@openzeppelin/contracts/token/ERC1155/ERC1155.sol\";\nimport \"@openzeppelin/contracts/security/Pausable.sol\";\nimport \"@openzeppelin/contracts/access/Ownable.sol\";\nimport \"@openzeppelin/contracts/utils/Strings.sol\";\n\ncontract Perma is ERC1155, Ownable, Pausable {\n    \n    uint256 public price = 0.01 ether;\n    mapping(address => bool) whitelist;\n    string public name = \"PERMALIFE\";\n    string public symbol = \"PERMABAG\";\n\n     constructor(string memory uri_) ERC1155(uri_) Ownable(msg.sender) {\n        name = \"PERMALIFE\";\n        symbol = \"PERMABAG\";\n    }\n\n    function setWhitelist(address[] calldata addresses) external onlyOwner {\n        for(uint256 i = 0; i < addresses.length; i++){\n            whitelist[addresses[i]] = true;\n        }\n    }\n\n    function setURI(string memory newuri) public onlyOwner {\n        _setURI(newuri);\n    }\n    \n    function uri(uint256 _id) public view virtual override returns(string memory) {\n        return string(abi.encodePacked(super.uri(_id), Strings.toString(_id), \".json\"));\n    }\n\n    function mint(address _owner, uint256 id, uint256 amount) public onlyOwner {\n        _mint(_owner , id, amount, \"\");\n    }\n\n    function withdraw(address payable _addr) external onlyOwner {\n        uint balance = address(this).balance;\n        _addr.transfer(balance);\n    }\n\n    function mintBatch(address to, uint256[] memory ids, uint256[] memory amounts, bytes memory data) public onlyOwner {\n        _mintBatch(to, ids, amounts, data);\n    }\n}\n",
  "sourcePath": "/home/so2f/Perso/clone_websites/Permalifev2/truffle/contracts/Perma.sol",
  "compiler": {
    "name": "solc",
    "version": "0.8.20+commit.a1b79de6.Emscripten.clang"
  },
  "schemaVersion": "3.4.16",
  "updatedAt": "2024-05-04T20:42:07.395Z",
  "networkType": "ethereum",
  "devdoc": {
    "errors": {
      "ERC1155InsufficientBalance(address,uint256,uint256,uint256)": [
        {
          "details": "Indicates an error related to the current `balance` of a `sender`. Used in transfers.",
          "params": {
            "balance": "Current balance for the interacting account.",
            "needed": "Minimum amount required to perform a transfer.",
            "sender": "Address whose tokens are being transferred.",
            "tokenId": "Identifier number of a token."
          }
        }
      ],
      "ERC1155InvalidApprover(address)": [
        {
          "details": "Indicates a failure with the `approver` of a token to be approved. Used in approvals.",
          "params": {
            "approver": "Address initiating an approval operation."
          }
        }
      ],
      "ERC1155InvalidArrayLength(uint256,uint256)": [
        {
          "details": "Indicates an array length mismatch between ids and values in a safeBatchTransferFrom operation. Used in batch transfers.",
          "params": {
            "idsLength": "Length of the array of token identifiers",
            "valuesLength": "Length of the array of token amounts"
          }
        }
      ],
      "ERC1155InvalidOperator(address)": [
        {
          "details": "Indicates a failure with the `operator` to be approved. Used in approvals.",
          "params": {
            "operator": "Address that may be allowed to operate on tokens without being their owner."
          }
        }
      ],
      "ERC1155InvalidReceiver(address)": [
        {
          "details": "Indicates a failure with the token `receiver`. Used in transfers.",
          "params": {
            "receiver": "Address to which tokens are being transferred."
          }
        }
      ],
      "ERC1155InvalidSender(address)": [
        {
          "details": "Indicates a failure with the token `sender`. Used in transfers.",
          "params": {
            "sender": "Address whose tokens are being transferred."
          }
        }
      ],
      "ERC1155MissingApprovalForAll(address,address)": [
        {
          "details": "Indicates a failure with the `operator`s approval. Used in transfers.",
          "params": {
            "operator": "Address that may be allowed to operate on tokens without being their owner.",
            "owner": "Address of the current owner of a token."
          }
        }
      ],
      "OwnableInvalidOwner(address)": [
        {
          "details": "The owner is not a valid owner account. (eg. `address(0)`)"
        }
      ],
      "OwnableUnauthorizedAccount(address)": [
        {
          "details": "The caller account is not authorized to perform an operation."
        }
      ]
    },
    "events": {
      "ApprovalForAll(address,address,bool)": {
        "details": "Emitted when `account` grants or revokes permission to `operator` to transfer their tokens, according to `approved`."
      },
      "Paused(address)": {
        "details": "Emitted when the pause is triggered by `account`."
      },
      "TransferBatch(address,address,address,uint256[],uint256[])": {
        "details": "Equivalent to multiple {TransferSingle} events, where `operator`, `from` and `to` are the same for all transfers."
      },
      "TransferSingle(address,address,address,uint256,uint256)": {
        "details": "Emitted when `value` amount of tokens of type `id` are transferred from `from` to `to` by `operator`."
      },
      "URI(string,uint256)": {
        "details": "Emitted when the URI for token type `id` changes to `value`, if it is a non-programmatic URI. If an {URI} event was emitted for `id`, the standard https://eips.ethereum.org/EIPS/eip-1155#metadata-extensions[guarantees] that `value` will equal the value returned by {IERC1155MetadataURI-uri}."
      },
      "Unpaused(address)": {
        "details": "Emitted when the pause is lifted by `account`."
      }
    },
    "kind": "dev",
    "methods": {
      "balanceOf(address,uint256)": {
        "details": "See {IERC1155-balanceOf}."
      },
      "balanceOfBatch(address[],uint256[])": {
        "details": "See {IERC1155-balanceOfBatch}. Requirements: - `accounts` and `ids` must have the same length."
      },
      "isApprovedForAll(address,address)": {
        "details": "See {IERC1155-isApprovedForAll}."
      },
      "owner()": {
        "details": "Returns the address of the current owner."
      },
      "paused()": {
        "details": "Returns true if the contract is paused, and false otherwise."
      },
      "renounceOwnership()": {
        "details": "Leaves the contract without owner. It will not be possible to call `onlyOwner` functions. Can only be called by the current owner. NOTE: Renouncing ownership will leave the contract without an owner, thereby disabling any functionality that is only available to the owner."
      },
      "safeBatchTransferFrom(address,address,uint256[],uint256[],bytes)": {
        "details": "See {IERC1155-safeBatchTransferFrom}."
      },
      "safeTransferFrom(address,address,uint256,uint256,bytes)": {
        "details": "See {IERC1155-safeTransferFrom}."
      },
      "setApprovalForAll(address,bool)": {
        "details": "See {IERC1155-setApprovalForAll}."
      },
      "supportsInterface(bytes4)": {
        "details": "See {IERC165-supportsInterface}."
      },
      "transferOwnership(address)": {
        "details": "Transfers ownership of the contract to a new account (`newOwner`). Can only be called by the current owner."
      }
    },
    "version": 1
  },
  "userdoc": {
    "kind": "user",
    "methods": {},
    "version": 1
  }
}